:10084C000404041F04040400040A1111110A040016
:10085C000002091515090600000F05050909090014
:10086C00544F4F4E20574F524B2D53484F4F500023
:0A08A600C291D2928F807F647E0021
:1008B000D3EF9400EE94004007EF1F70F31E80F01A
:0108C0002215
:0E08FC00C2901208A6C2927F647E000208B06D
:0E090A00D2901208A6C2927F647E000208B04E
:10087C007FD07E071208B07F301208FC7F30120840
:10088C00FC7F381208FC7F081208FC7F011208FC60
:0A089C007F061208FC7F0C0208FC26
:0F08ED001FED1DEF75F040A42D2480FF0208FCC5
:1008DA001208C1FF600C12090A740129F9E43AFAF4
:0308EA0080EE227B
:1008000012087C7F401208FCE4FDEDFF3395E0FE0A
:10081000744C2FF58274083EF583E493FF12090AA5
:100820000DBD20E67D067C007F021208EDE4FDAFE1
:100830000512090A0DBD04F77D017C007F01120835
:0C084000ED7BFF7A08796C1208DA80FE6C
:03000000020918DA
:0C091800787FE4F6D8FD75810702080026
:1008C100BB010689828A83E0225002E722BBFE0235
:0908D100E32289828A83E4932268
:00000001FF
