:10087900C0F9A4B0999282F880900001020304059E
:04088900060708094D
:10085500D3EF9400EE9400401A7DE87C03ED1D7003
:10086500011CED4C70F7EF1F70011E75A61E75A6D5
:03087500E180DD42
:01087800225D
:10080000758920758DF3D28E75985075A61E75A6C4
:10081000E1E4F508F50974832509F58274083508C3
:10082000F583E493F5993099FDC2993098FDC2980B
:10083000AF99EF90087993F5A07F647E0012085578
:100840000509E50970020508C3940AE50864809467
:050850008040C380BCE4
:0300000002088D66
:0C088D00787FE4F6D8FD758109020800B0
:00000001FF
