:100C1800003F0006005B004F0066006D007D002766
:100C2800007F006F005F007C0058005E0079007153
:0A0C3800007F007F00BF00DF00EF27
:030C5500010C107F
:100C4200D3EF9400EE648094804007EF1F70F11E92
:030C520080EE220F
:100BDB007580FF7408250DF8E6F590AF0DEF339592
:100BEB00E0FEEF25E0FFEE33FE743A2FF582740C36
:100BFB003EF583740193F580050DC3E50D64809478
:0D0C0B00844003E4F50D7F647E00020C427E
:1008000075B0FE20B431750C07850A0B85090A8581
:100810000809AF0CEF3395E0FEEF25E0FFEE33FE65
:1008200074182FF582740C3EF583740193F508203B
:10083000B405120BDB80F820B531750C08850A0B66
:1008400085090A850809AF0CEF3395E0FEEF25E036
:10085000FFEE33FE74182FF582740C3EF58374019D
:1008600093F50820B505120BDB80F820B631750C26
:1008700009850A0B85090A850809AF0CEF3395E055
:10088000FEEF25E0FFEE33FE74182FF582740C3E68
:10089000F583740193F50820B605120BDB80F82070
:1008A000B731750C10850A0B85090A850809AF0C4C
:1008B000EF3395E0FEEF25E0FFEE33FE74182FF5E1
:1008C00082740C3EF583740193F50820B705120B72
:1008D000DB80F875B0FD20B431750C04850A0B85FA
:1008E000090A850809AF0CEF3395E0FEEF25E0FF1C
:1008F000EE33FE74182FF582740C3EF58374019369
:10090000F50820B405120BDB80F820B531750C0515
:10091000850A0B85090A850809AF0CEF3395E0FEBF
:10092000EF25E0FFEE33FE74182FF582740C3EF5D0
:1009300083740193F50820B505120BDB80F820B60F
:1009400031750C06850A0B85090A850809AF0CEF7D
:100950003395E0FEEF25E0FFEE33FE74182FF582AD
:10096000740C3EF583740193F50820B605120BDB79
:1009700080F820B731750C10850A0B85090A8508A7
:1009800009AF0CEF3395E0FEEF25E0FFEE33FE7488
:10099000182FF582740C3EF583740193F50820B787
:1009A00005120BDB80F875B0FB20B431750C0185A6
:1009B0000A0B85090A850809AF0CEF3395E0FEEFB5
:1009C00025E0FFEE33FE74182FF582740C3EF5839C
:1009D000740193F50820B405120BDB80F820B531C3
:1009E000750C02850A0B85090A850809AF0CEF33DF
:1009F00095E0FEEF25E0FFEE33FE74182FF58274CC
:100A00000C3EF583740193F50820B505120BDB80CD
:100A1000F820B631750C03850A0B85090A8508098B
:100A2000AF0CEF3395E0FEEF25E0FFEE33FE7418D8
:100A30002FF582740C3EF583740193F50820B605FA
:100A4000120BDB80F820B731750C10850A0B850975
:100A50000A850809AF0CEF3395E0FEEF25E0FFEEC5
:100A600033FE74182FF582740C3EF583740193F5F0
:100A70000820B705120BDB80F875B0F720B431758C
:100A80000C10850A0B85090A850809AF0CEF339510
:100A9000E0FEEF25E0FFEE33FE74182FF582740CB4
:100AA0003EF583740193F50820B405120BDB80F842
:100AB00020B531E4F50C850A0B85090A850809AFD4
:100AC0000CEF3395E0FEEF25E0FFEE33FE74182FB8
:100AD000F582740C3EF583740193F50820B5051278
:100AE0000BDB80F820B631750C10850A0B85090ADE
:100AF000850809AF0CEF3395E0FEEF25E0FFEE33FC
:100B0000FE74182FF582740C3EF583740193F5087A
:100B100020B605120BDB80F820B731750C10850A62
:100B20000B85090A850809AF0CEF3395E0FEEF2528
:100B3000E0FFEE33FE74182FF582740C3EF58374DB
:0F0B40000193F50820B705120BDB80F8020BDBE1
:03000000020B4FA1
:0C0B4F00787FE4F6D8FD75810D020B964E
:100B5B00020800E493A3F8E493A34003F68001F2A8
:100B6B0008DFF48029E493A3F85407240CC8C3339B
:100B7B00C4540F4420C8834004F456800146F6DF6A
:100B8B00E4800B0102040810204080900C55E47E99
:100B9B00019360BCA3FF543F30E509541FFEE4935F
:100BAB00A360010ECF54C025E060A840B8E493A326
:100BBB00FAE493A3F8E493A3C8C582C8CAC583CA51
:100BCB00F0A3C8C582C8CAC583CADFE9DEE780BE09
:010C5800009B
:00000001FF
