:10090E0000C000F900A400B000990092008200F827
:04091E0000800090C5
:10092200D3EF9400EE648094804007EF1F70F11EB5
:0309320080EE2232
:10088B00E4FBFAC3EB940AEA648094807C007D0A53
:10089B00AF03AE02501E120800ED25E0FFEC33FE55
:1008AB00740E2FF58274093EF583740193F5B075C0
:1008BB00A0FF803A120800ED25E0FFEC33FE740E2A
:1008CB002FF58274093EF583740193F5B07C007D9E
:1008DB000AAF03AE02120800EF25E0FFEE33FE7401
:1008EB000E2FF58274093EF583740193F5A07F40BA
:1008FB007E421209220BBB00010AEB64644A70832F
:03090B0002088B54
:03000000020935BD
:0C093500787FE4F6D8FD75810702088B7E
:10080000C2D5EC30E709B2D5E4C39DFDE49CFCEE13
:1008100030E715B2D5E4C39FFFE49EFE120836C34D
:10082000E49DFDE49CFC800312083630D507C3E448
:060830009FFFE49EFE2282
:10083600BC000BBE0029EF8DF084FFADF022E4CCA6
:10084600F875F008EF2FFFEE33FEEC33FCEE9DEC6F
:10085600984005FCEE9DFE0FD5F0E9E4CEFD22EDB5
:10086600F8F5F0EE8420D21CFEADF075F008EF2FFF
:10087600FFED33FD4007985006D5F0F222C398FDF0
:050886000FD5F0EA228D
:00000001FF
