:0300000002087C77
:0C087C00787FE4F6D8FD758107020800C3
:0E085D007F107E2712086B7580FF7F107E27AC
:10086B00D3EF9400EE94004007EF1F70F31E80F05F
:01087B00225A
:100800001208647580FD1208677580FB1208677511
:1008100080F71208677580EF1208677580DF12088D
:10082000677580BF12086775807F12085D120864C3
:1008300075807F1208677580BF1208677580DF12A8
:1008400008677580EF1208677580F7120867758072
:0D085000FB1208677580FD12085D020800AC
:00000001FF
