:10088C0000C000F900A400B000990092008200F8AA
:0C089C0000800090007F00BF00DF00EF34
:1008A800D3EF9400EE648094804007EF1F70F11E30
:0308B80080EE22AD
:10080000E4FDFC7580FF740C250BF8E6F590E50B14
:1008100025E0FFE50A33FE74A02FF58274083EF54B
:1008200083740193F580050BE50B7002050AC394F0
:1008300004E50A94004005E4F50AF50B7FC87E0044
:100840001208A80509E50970020508C39464E508C3
:10085000940040AFE4F508F509ED940AEC940040EB
:1008600003E4FCFD850D0C850E0D850F0EED25E0D6
:10087000FFEC33FE748C2FF58274083EF58374010F
:0C08800093F4F50F0DBD00010C020803FD
:030000000208BB38
:0C08BB00787FE4F6D8FD75810F0208007C
:00000001FF
