:10035B0000C000F900A400B000990092008200F8E0
:10036B0000800090007F00BF00DF00EF00F700FB74
:10037B00D3EF9400EE648094804007EF1F70F11E62
:03038B0080EE22DF
:10000300E4F50AF50BF51475150B7F3AFEFAFC7D42
:100013003C1201C08E838F82AE14AF157C0E7D100F
:100023001201C0EF2582FFEE3583CF243AF50BEAA8
:100033003FF50A7580FF7416250DF8E6F590E50D7A
:1000430025E0FFE50C33FE746F2FF58274033EF554
:1000530083740193F580050DE50D7002050CC394BF
:1000630006E50C94004005E4F50CF50D7F647E0075
:1000730012037B0509E50970020508C39464E508CA
:10008300940040AFE4F508F509050BE50B70020594
:100093000AAE0AFFE4FCFD7BC07AA8F9F8D312028A
:1000A300275005E4F50AF50BAE0AAF0BE4FCFD7B24
:1000B300A07A8CF9F812031790035B75F002EF1224
:1000C300023DEE25E02583F583740193F4F516AE26
:1000D3000AAF0BE4FCFD7BA07A8CF9F8120317AE90
:1000E30002AF038E0E8F0F7C0E7D101201D2EF250F
:1000F300E0FFEE33FE745B2FF58274033EF58374E9
:100103000193F4F517AE0AAF0B7C0E7D101201D2EA
:100113008C108D11AE10AF117C027D581201D2EFFD
:1001230025E0FFEE33FE745B2FF58274033EF58307
:10013300740193F4F518AE0AAF0B7C027D581201DB
:10014300D28C128D13AE12AF137C007D3C1201D200
:10015300EF25E0FFEE33FE745B2FF58274033EF56B
:1001630083740193F4F519AE0AAF0B7C007D3C1246
:1001730001D2AB05AA047C007D0AAF03AE021201D3
:10018300D2EF25E0FFEE33FE745B2FF58274033E5E
:10019300F583740193F4F51AAE0AAF0B7C007D0A64
:1001A3001201D2ED25E0FFEC33FE745B2FF5827470
:0D01B300033EF583740193F4F51B02003642
:0300000002038E6A
:0C038E00787FE4F6D8FD75811B020003A7
:1001C000EF8DF0A4A8F0CF8CF0A428CE8DF0A42E53
:0201D000FE220D
:1001D200BC000BBE0029EF8DF084FFADF022E4CC11
:1001E200F875F008EF2FFFEE33FEEC33FCEE9DECDA
:1001F200984005FCEE9DFE0FD5F0E9E4CEFD22ED20
:10020200F8F5F0EE8420D21CFEADF075F008EF2F69
:10021200FFED33FD4007985006D5F0F222C398FD5A
:050222000FD5F0EA22F7
:10031700C2D5E830E70FB2D5E4C39BFBE49AFAE411
:1003270099F9E498F8EC30E717B2D512034D1202A9
:1003370085E4C39BFBE49AFAE499F9E498F880030F
:1003470012028530D50DE4C39FFFE49EFEE49DFDB8
:04035700E49CFC2204
:10022700EB9FF5F0EA9E42F0E99D42F0EC6480C84E
:0602370064809845F022EE
:0C023D00A42582F582E5F03583F58322CC
:1002490075F008758200EF2FFFEE33FECD33CDCC6C
:1002590033CCC58233C5829BED9AEC99E5829840EF
:100269000CF582EE9BFEED9AFDEC99FC0FD5F0D6CC
:10027900E4CEFBE4CDFAE4CCF9A88222B800C1B9F6
:100289000059BA002DEC8BF084CFCECDFCE5F0CB34
:10029900F97818EF2FFFEE33FEED33FDEC33FCEB6D
:1002A90033FB10D703994004EB99FB0FD8E5E4F928
:1002B900FA227818EF2FFFEE33FEED33FDEC33FC15
:1002C900C933C910D7059BE99A4007EC9BFCE99A09
:1002D900F90FD8E0E4C9FAE4CCFB2275F010EF2F4E
:1002E900FFEE33FEED33FDCC33CCC833C810D7074E
:1002F9009BEC9AE899400AED9BFDEC9AFCE899F889
:0E0309000FD5F0DAE4CDFBE4CCFAE4C8F9221B
:00000001FF
