:0300000002087D76
:0C087D00787FE4F6D8FD758108020800C1
:04088900F97DFCBF3A
:10086C00D3EF9400EE94004007EF1F70F31E80F05E
:01087C002259
:10080000D2AFD2A9758901D28CE4FDE4F5087FC48A
:100810007E0912086C7508017FC47E0912086C0DF0
:10082000BD14E8C28CE4FDEDC3940450DA7F507E21
:07083000C312086C0D80F0FB
:03000B00020837B1
:10083700C0E0C083C082C0D0E50825E02489F582E6
:10084700E43408F583E493F58CE50825E0248AF57C
:1008570082E43408F583E493F58AB280D0D0D0825D
:05086700D083D0E03257
:00000001FF
