:1008CE00003F0006005B004F0066006D007D0027B4
:1008DE00007F006F005F007C0058005E00790071A1
:0A08EE00007F007F00BF00DF00EF75
:1008F800D3EF9400EE648094804007EF1F70F11EE0
:0309080080EE225C
:100800007D109008CE740193F508E4F50BF50AF518
:10081000097F647E001208F87580FF7408250DF8C2
:10082000E6F590E50D25E0FFE50C33FE74F02FF5BD
:100830008274083EF583740193F580050DE50D7013
:1008400002050CC39404E50C648094804005E4F533
:100850000CF50D75B0F020B4027D0720B5027D08BF
:1008600020B6027D0920B7027D1075B0FD20B402CC
:100870007D0420B5027D0520B6027D0620B7027DED
:100880001075B0FB20B4027D0120B5027D0220B6B8
:10089000027D0320B7027D1075B0F720B4027D10F1
:1008A00020B502E4FD20B6027D1020B7027D10EDD8
:1008B000FF3395E0FEEF25E0FFEE33FE74CE2FF51B
:0E08C0008274083EF583740193F50802081156
:0300000002090BE7
:0C090B00787FE4F6D8FD75810D0208002D
:00000001FF
