:0A087F00C0F9A4B0999283F88098A4
:10085800747F2509F58274083508F583E493F5A0BB
:0B086800D2AFD2A9758901D28C80FEAE
:03000B00020800E8
:10080000C0E0C083C082C0D0758DEC758B78050BBD
:10081000E50B7002050AC39414E50A6480948040D5
:100820002E750A00750B000509E50970020508948C
:100830000AE5086480948040067508007509007414
:100840007F2509F58274083508F583E493F5A0D077
:08085000D0D082D083D0E03249
:0300000002087380
:0C087300787FE4F6D8FD75810B02085870
:00000001FF
