:100883004655434B20594F55005369636B204D59CF
:06089300204469636B00C4
:0A084F00C291D2928F807F647E0078
:10085900D3EF9400EE94004007EF1F70F31E80F071
:01086900226C
:0E08BB00C29012084FC2927F647E000208595C
:0E08C900D29012084FC2927F647E000208593E
:100800007FD07E071208597F301208BB7F30120854
:10081000BB7F381208BB7F081208BB7F011208BBE0
:0A0820007F061208BB7F0C0208BB24
:0F08AC001FED1DEF75F040A42D2480FF0208BB47
:1008990012086AFF600C1208C9740129F9E43AFACE
:0308A90080EE22BC
:10082A001208007D017C007F011208AC7BFF7A0868
:10083A0079831208997D017F021208AC7A08798CB3
:05084A0012089980FE78
:030000000208D71C
:0C08D700787FE4F6D8FD75810702082A3E
:10086A00BB010689828A83E0225002E722BBFE028C
:09087A00E32289828A83E49322BF
:00000001FF
