:100879002C7E292030283420007E2000683E480044
:10088900003C24FFFF243C00E6E684FFFF84E6E603
:10089900007E20006A3E4A0000003E4040200000E1
:1008A900D3EF9400EE94004007EF1F70F31E80F021
:0108B900221C
:10080000E4FD900879E493F5080DBD08F57D077CBB
:1008100001C3ED64809480401C7580FFECF4F5808A
:1008200074082DF8E6F5907F647E001208A91DEC8F
:1008300025E0FC80DC0510C3E5106480949440CD75
:10084000E4F510FD74092DF8E6FF74082DF8A607ED
:100850000DBD07F0AF111511EF3395E0FE74792F40
:10086000F58274083EF583E493F50FD3E5116480B7
:09087000948050997511308094B8
:030000000208BA39
:0C08BA00787FE4F6D8FD7581110208007B
:00000001FF
