:1009C70000C000F900A400B000990092008200F86E
:0C09D70000800090007F00BF00DF00EFF8
:1009E300D3EF9400EE648094804007EF1F70F11EF4
:0309F30080EE2271
:100800007580FF7410250BF8E6F590E50B25E0FFE9
:10081000E50A33FE74DB2FF58274093EF58374011B
:1008200093F580050BE50B7002050AC39404E50AF5
:10083000648094804005E4F50AF50B7F647E001225
:1008400009E30509E50970020508C394E8E50864B1
:100850008094834046E4F508F509050FE50F700222
:10086000050E943CE50E64809480402FE4F50EF56F
:100870000F0BBB00010AC3EB943CEA6480948040F8
:100880001AE4FAFB050DE50D7002050C9418E50C51
:10089000648094804005E4F50CF50DAE0CAF0D7C42
:1008A000007D0A12093CEF25E0FFEE33FE74C72FEE
:1008B000F58274093EF583740193F4F510AE0CAF24
:1008C0000D7C007D0A12093CED25E0FFEC33FE743F
:1008D000C72FF58274093EF583740193F4F5117CFA
:1008E000007D0AAF03AE0212093CEF25E0FFEE33B4
:1008F000FE74C72FF58274093EF583740193F4F5F5
:10090000127C007D0AAF03AE0212093CED25E0FF28
:10091000EC33FE74C72FF58274093EF5837401939E
:10092000F4FFF513D3E50994F4E50864809481504D
:0C09300003020800EF2480F51302080009
:030000000209F6FC
:0C09F600787FE4F6D8FD7581130208003C
:10093C00C2D5EC30E709B2D5E4C39DFDE49CFCEED6
:10094C0030E715B2D5E4C39FFFE49EFE120972C3D3
:10095C00E49DFDE49CFC800312097230D507C3E4CE
:06096C009FFFE49EFE2245
:10097200BC000BBE0029EF8DF084FFADF022E4CC69
:10098200F875F008EF2FFFEE33FEEC33FCEE9DEC32
:10099200984005FCEE9DFE0FD5F0E9E4CEFD22ED78
:1009A200F8F5F0EE8420D21CFEADF075F008EF2FC2
:1009B200FFED33FD4007985006D5F0F222C398FDB3
:0509C2000FD5F0EA2250
:00000001FF
