:1008CA00000E1C18181C0E00000E1E18181E0E0012
:1008DA00000E1F1C1C1F0E00000E1F1F1F1F0E00E4
:0808EA000404041F04040400CF
:0A08F200C291D2928F807F647E00D5
:1008FC00D3EF9400EE94004007EF1F70F31E80F0CE
:01090C0022C8
:0E093700C2901208F2C2927F647E000208FC99
:0E094500D2901208F2C2927F647E000208FC7B
:1008A0007FD07E071208FC7F301209377F30120993
:1008B000377F381209377F081209377F011209374D
:0A08C0007F061209377F0C0209378A
:08090D00EBFD3395E0FC7F01D6
:0F0915001FED1DEF75F040A42D2480FF02093760
:10092400120875FF600C120945740129F9E43AFABA
:0309340080EE2230
:100800001208A07F40120937E4FBEBFF3395E0FEAE
:1008100074CA2FF58274083EF583E493FF120945EC
:100820000BBB28E67B01C3EB6480949150D2E4FAC1
:1008300012090DAF02120945EB04F9C3E964809473
:1008400091500CE912090E7F041209450980ECEB66
:10085000FF3395E0FEEF2401FFE43EFE7C007DC8FF
:1008600012088E1208FC0ABA04C612090D7FFE1285
:0508700009450B80B1F9
:030000000209539F
:0C095300787FE4F6D8FD758107020800EB
:10087500BB010689828A83E0225002E722BBFE0281
:09088500E32289828A83E49322B4
:10088E00EF8DF0A4A8F0CF8CF0A428CE8DF0A42E7E
:02089E00FE2238
:00000001FF
