:10089200003C24FFFF243C00E6E684FFFF84E6E6FA
:0808A200FEFDFBF7EFDFBF7F55
:1008AA00D3EF9400EE94004007EF1F70F31E80F020
:0108BA00221B
:100800007DC8E4FC7B10FAEA90089293FF74102AEA
:10081000F8A607EA90089A93FF74082AF8A6070A30
:10082000BA08E4E4FA7580FFEA9008A293F58074B0
:10083000102AF8E6F5907F327E001208AA0ABA085C
:10084000E40518E518C39D40DAE4F518FFEF9008B9
:100850009393FE74102FF8A6060FBF07F074082CB0
:10086000F8E6F5170CECC394084023E4FC7DC8FAC5
:10087000EB2A90089293FF74082AF8A6070ABA0890
:10088000EF74082BFBC394504099E4FB80957D28BE
:02089000809155
:030000000208BB38
:0C08BB00787FE4F6D8FD75811802080073
:00000001FF
