:1008750000C000F900A400B000990092008200F8C1
:100885000080009000A0008300A700A10086008ED4
:02089500007FE2
:100800007D10750801E4FCE508F4F590E59054F0DE
:1008100064F06037E59054F02490602724C060199C
:1008200024E0600C24F07023EC25E025E0FD801B23
:10083000EC25E025E004FD8012EC25E025E0240213
:10084000FD8008EC25E025E02403FDEDFF3395E075
:10085000FEEF25E0FFEE33FE74752FF58274083E3F
:10086000F583740193F5A0E50825E0F5080CEC6428
:05087000047094808D6E
:030000000208975C
:0C089700787FE4F6D8FD758108020800A7
:00000001FF
