:1008FF0000010002000400080010002000400080EA
:02091200C10022
:1008D300ED25E0FFEC33FE74FF2FF58274083EF53F
:0B08E30083740193F4F5807F207E4EAB
:1008EE00D3EF9400EE94004007EF1F70F31E80F0DC
:0108FE0022D7
:03000B0002090FD8
:03090F00B2003201
:10088C00758CFD758AFDD2AFD2A9758906D28C20E4
:10089C00001A1208D3D3ED9407EC648094804005C1
:1008AC00E4FCFD80EA0DBD00010C80E31208D3C30B
:1008BC00ED9401EC6480948050067C007D0780CF21
:0708CC00ED1D70CB1C80C87C
:03000000020800F3
:0C080000787FE4F6D8FD758120020847DF
:10080C0002088CE493A3F8E493A34003F68001F26E
:10081C0008DFF48029E493A3F85407240CC8C333ED
:10082C00C4540F4420C8834004F456800146F6DFBC
:10083C00E4800B0102040810204080900912E47E31
:10084C00019360BCA3FF543F30E509541FFEE493B1
:10085C00A360010ECF54C025E060A840B8E493A378
:10086C00FAE493A3F8E493A3C8C582C8CAC583CAA3
:10087C00F0A3C8C582C8CAC583CADFE9DEE780BE5B
:0109140000E2
:00000001FF
