:07085900850B807F107E2754
:10086000D3EF9400EE94004007EF1F70F31E80F06A
:010870002265
:10080000750A00750BFF750800750901120859E596
:100810000AA2E713F50AE50B13F50B0509E50970C4
:10082000020508C3940AE5086480948040DE7508D8
:1008300000750901C3E509940AE5086480948050B5
:10084000BF120859E50B25E0F50BE50A33F50A055B
:0908500009E50970DF050880DBF1
:0300000002087182
:0C087100787FE4F6D8FD75810B020800CA
:00000001FF
