:10086C00D3EF9400EE94004007EF1F70F31E80F05E
:01087C002259
:0300030002083AB6
:0D083A00C0E0C0D075D000C005C006C007EA
:10084700E4FD7580007F207E4E12086C7580FF7F67
:0A085700207E4E12086C0DBD05E86E
:0B086100D007D006D005D0D0D0E03288
:10080000750801C200D2A8D2AFD28820B02BE5086B
:10081000F4F5807FE87E0312086CE50820000625C9
:10082000E0F5088004C313F508E508B48002D2009F
:0A083000E508B401D6C20080D22210
:0300000002087D76
:0C087D00787FE4F6D8FD758120020800A9
:00000001FF
