:10087B00000100020004000800100020004000806E
:10084700EDFF3395E0FEEF25E0FFEE33FE747B2FDF
:10085700F58274083EF583740193F4F5807F107E6A
:010867002769
:10086800D3EF9400EE648094804007EF1F70F11E70
:0308780080EE22ED
:10080000D2B3D2B220B21C7FD07E0712086830B2B9
:10081000127FD07E07120868E4FD1208470DBD085C
:10082000F980F520B3DE7FD07E0712086830B2D49D
:100830007FD07E071208687D071208471DC3ED644C
:0708400080948050F480F069
:0300000002088B68
:0C088B00787FE4F6D8FD758107020800B4
:00000001FF
